:020000020000FC
:100000000FEF01B900BB00E007B90FEF08B910E02E
:1000100020E031E040E050E060E0633081F06030AB
:1000200031F4152F5327132712B9603041F0613096
:1000300011F450E06395252F5327232721BB75E149
:100040008BE49FEB06B1013F11F40E943E0006B124
:10005000023F11F40E946F0006B1043F11F40E94A8
:10006000D60006B1083F11F40E94E3009A9551F7BB
:100070008A9541F77A9531F70000CFCF0E94F000C2
:1000800006B1013FD9F3403011F40E94A000413085
:1000900011F40E94A300423011F40E94A6004330E4
:1000A00011F40E94A900443011F40E94AC004530C4
:1000B00011F40E94AF00463011F40E94B2004730A4
:1000C00059F40E94B500613011F4152F12B9633054
:1000D00011F4252F21BB08954395330F08950E94F5
:1000E000F00006B1023FD9F3403011F40E94BB008A
:1000F000413011F40E94BE00423011F40E94C10050
:10010000433011F40E94C400443011F40E94C7002F
:10011000453011F40E94CA00463011F40E94CD000F
:10012000473059F40E94D000613011F4152F12B9F4
:10013000633011F4252F21BB08954395330F0895A3
:1001400050FF5327089551FF5327089552FF532717
:10015000089553FF5327089554FF5327089555FFDB
:100160005327089556FF5327089557FF5327639544
:1001700040E031E0089550FD5327089551FD532785
:10018000089552FD5327089553FD5327089554FDB4
:100190005327089555FD5327089556FD5327089575
:1001A00057FD5327639540E031E008950E94F00029
:1001B00006B1043FD9F300E001BB120F12B910F4ED
:1001C00021E021BB08950E94F00006B1083FD9F359
:1001D00000E001BB121B12B910F421E021BB08950D
:1001E000A2E0B0EAC3E9CA95F1F7BA95E1F7AA959A
:0601F000D1F700000895A4
:00000001FF
